{
  "_format": "hh-sol-artifact-1",
  "contractName": "HOOP",
  "sourceName": "contracts/HoopToken.sol",
  "abi": [
    {
      "inputs": [],
      "stateMutability": "nonpayable",
      "type": "constructor"
    },
    {
      "anonymous": false,
      "inputs": [
        {
          "indexed": true,
          "internalType": "address",
          "name": "owner",
          "type": "address"
        },
        {
          "indexed": true,
          "internalType": "address",
          "name": "spender",
          "type": "address"
        },
        {
          "indexed": false,
          "internalType": "uint256",
          "name": "value",
          "type": "uint256"
        }
      ],
      "name": "Approval",
      "type": "event"
    },
    {
      "anonymous": false,
      "inputs": [
        {
          "indexed": true,
          "internalType": "address",
          "name": "previousOwner",
          "type": "address"
        },
        {
          "indexed": true,
          "internalType": "address",
          "name": "newOwner",
          "type": "address"
        }
      ],
      "name": "OwnershipTransferred",
      "type": "event"
    },
    {
      "anonymous": false,
      "inputs": [
        {
          "indexed": true,
          "internalType": "address",
          "name": "from",
          "type": "address"
        },
        {
          "indexed": true,
          "internalType": "address",
          "name": "to",
          "type": "address"
        },
        {
          "indexed": false,
          "internalType": "uint256",
          "name": "value",
          "type": "uint256"
        }
      ],
      "name": "Transfer",
      "type": "event"
    },
    {
      "inputs": [
        {
          "internalType": "address",
          "name": "owner",
          "type": "address"
        },
        {
          "internalType": "address",
          "name": "spender",
          "type": "address"
        }
      ],
      "name": "allowance",
      "outputs": [
        {
          "internalType": "uint256",
          "name": "",
          "type": "uint256"
        }
      ],
      "stateMutability": "view",
      "type": "function"
    },
    {
      "inputs": [
        {
          "internalType": "address",
          "name": "spender",
          "type": "address"
        },
        {
          "internalType": "uint256",
          "name": "amount",
          "type": "uint256"
        }
      ],
      "name": "approve",
      "outputs": [
        {
          "internalType": "bool",
          "name": "",
          "type": "bool"
        }
      ],
      "stateMutability": "nonpayable",
      "type": "function"
    },
    {
      "inputs": [
        {
          "internalType": "address",
          "name": "account",
          "type": "address"
        }
      ],
      "name": "balanceOf",
      "outputs": [
        {
          "internalType": "uint256",
          "name": "",
          "type": "uint256"
        }
      ],
      "stateMutability": "view",
      "type": "function"
    },
    {
      "inputs": [],
      "name": "decimals",
      "outputs": [
        {
          "internalType": "uint8",
          "name": "",
          "type": "uint8"
        }
      ],
      "stateMutability": "view",
      "type": "function"
    },
    {
      "inputs": [
        {
          "internalType": "address",
          "name": "spender",
          "type": "address"
        },
        {
          "internalType": "uint256",
          "name": "subtractedValue",
          "type": "uint256"
        }
      ],
      "name": "decreaseAllowance",
      "outputs": [
        {
          "internalType": "bool",
          "name": "",
          "type": "bool"
        }
      ],
      "stateMutability": "nonpayable",
      "type": "function"
    },
    {
      "inputs": [
        {
          "internalType": "address",
          "name": "_address",
          "type": "address"
        }
      ],
      "name": "excludeFromBurn",
      "outputs": [],
      "stateMutability": "nonpayable",
      "type": "function"
    },
    {
      "inputs": [],
      "name": "getContractBalance",
      "outputs": [
        {
          "internalType": "uint256",
          "name": "",
          "type": "uint256"
        }
      ],
      "stateMutability": "view",
      "type": "function"
    },
    {
      "inputs": [
        {
          "internalType": "address",
          "name": "_address",
          "type": "address"
        }
      ],
      "name": "includeBurn",
      "outputs": [],
      "stateMutability": "nonpayable",
      "type": "function"
    },
    {
      "inputs": [
        {
          "internalType": "address",
          "name": "spender",
          "type": "address"
        },
        {
          "internalType": "uint256",
          "name": "addedValue",
          "type": "uint256"
        }
      ],
      "name": "increaseAllowance",
      "outputs": [
        {
          "internalType": "bool",
          "name": "",
          "type": "bool"
        }
      ],
      "stateMutability": "nonpayable",
      "type": "function"
    },
    {
      "inputs": [],
      "name": "name",
      "outputs": [
        {
          "internalType": "string",
          "name": "",
          "type": "string"
        }
      ],
      "stateMutability": "view",
      "type": "function"
    },
    {
      "inputs": [],
      "name": "owner",
      "outputs": [
        {
          "internalType": "address",
          "name": "",
          "type": "address"
        }
      ],
      "stateMutability": "view",
      "type": "function"
    },
    {
      "inputs": [
        {
          "internalType": "uint256",
          "name": "balance",
          "type": "uint256"
        }
      ],
      "name": "percent",
      "outputs": [
        {
          "internalType": "uint256",
          "name": "",
          "type": "uint256"
        }
      ],
      "stateMutability": "view",
      "type": "function"
    },
    {
      "inputs": [],
      "name": "renounceOwnership",
      "outputs": [],
      "stateMutability": "nonpayable",
      "type": "function"
    },
    {
      "inputs": [],
      "name": "resetMintSchedule",
      "outputs": [
        {
          "internalType": "bool",
          "name": "",
          "type": "bool"
        }
      ],
      "stateMutability": "nonpayable",
      "type": "function"
    },
    {
      "inputs": [
        {
          "internalType": "uint256",
          "name": "_percent",
          "type": "uint256"
        }
      ],
      "name": "setBasePercent",
      "outputs": [],
      "stateMutability": "nonpayable",
      "type": "function"
    },
    {
      "inputs": [],
      "name": "symbol",
      "outputs": [
        {
          "internalType": "string",
          "name": "",
          "type": "string"
        }
      ],
      "stateMutability": "view",
      "type": "function"
    },
    {
      "inputs": [],
      "name": "totalSupply",
      "outputs": [
        {
          "internalType": "uint256",
          "name": "",
          "type": "uint256"
        }
      ],
      "stateMutability": "view",
      "type": "function"
    },
    {
      "inputs": [
        {
          "internalType": "address",
          "name": "recipient",
          "type": "address"
        },
        {
          "internalType": "uint256",
          "name": "amount",
          "type": "uint256"
        }
      ],
      "name": "transfer",
      "outputs": [
        {
          "internalType": "bool",
          "name": "",
          "type": "bool"
        }
      ],
      "stateMutability": "nonpayable",
      "type": "function"
    },
    {
      "inputs": [
        {
          "internalType": "address",
          "name": "tokenAddress",
          "type": "address"
        },
        {
          "internalType": "uint256",
          "name": "amount",
          "type": "uint256"
        }
      ],
      "name": "transferERC20",
      "outputs": [
        {
          "internalType": "bool",
          "name": "",
          "type": "bool"
        }
      ],
      "stateMutability": "nonpayable",
      "type": "function"
    },
    {
      "inputs": [
        {
          "internalType": "address",
          "name": "sender",
          "type": "address"
        },
        {
          "internalType": "address",
          "name": "recipient",
          "type": "address"
        },
        {
          "internalType": "uint256",
          "name": "amount",
          "type": "uint256"
        }
      ],
      "name": "transferFrom",
      "outputs": [
        {
          "internalType": "bool",
          "name": "",
          "type": "bool"
        }
      ],
      "stateMutability": "nonpayable",
      "type": "function"
    },
    {
      "inputs": [
        {
          "internalType": "address",
          "name": "newOwner",
          "type": "address"
        }
      ],
      "name": "transferOwnership",
      "outputs": [],
      "stateMutability": "nonpayable",
      "type": "function"
    },
    {
      "inputs": [],
      "name": "website",
      "outputs": [
        {
          "internalType": "string",
          "name": "",
          "type": "string"
        }
      ],
      "stateMutability": "view",
      "type": "function"
    },
    {
      "inputs": [
        {
          "internalType": "uint256",
          "name": "amount",
          "type": "uint256"
        }
      ],
      "name": "withdrawCoins",
      "outputs": [
        {
          "internalType": "bool",
          "name": "",
          "type": "bool"
        }
      ],
      "stateMutability": "nonpayable",
      "type": "function"
    }
  ],
  "bytecode": "0x60806040523480156200001157600080fd5b506200001d3362000184565b60408051808201909152600f8082526e486f6f706f652056656e747572657360881b602090920191825262000055916004916200026c565b50604080518082019091526004808252630484f4f560e41b602090920191825262000083916005916200026c565b506006805460ff1916601217905569032d26d12e980b60000060075560646009556040805180820190915260178082527f68747470733a2f2f686f6f706f652e76656e74757265730000000000000000006020909201918252620000ea916008916200026c565b5042600a81905550620001126301e13380600a54620001d460201b620007e91790919060201c565b600a55683635c9adc5dea00000600b55600754336000818152600160205260409020919091556200014390620001e9565b60075460405190815233906000907fddf252ad1be2c89b69c2b068fc378daa952ba7f163c4a11628f55a4df523b3ef9060200160405180910390a362000375565b600080546001600160a01b038381166001600160a01b0319831681178455604051919092169283917f8be0079c531659141344cd1fd0a4f28419497f9722a3daafe3b4186f6b6457e09190a35050565b6000620001e2828462000312565b9392505050565b6000546001600160a01b03163314620002485760405162461bcd60e51b815260206004820181905260248201527f4f776e61626c653a2063616c6c6572206973206e6f7420746865206f776e6572604482015260640160405180910390fd5b6001600160a01b03166000908152600360205260409020805460ff19166001179055565b8280546200027a9062000339565b90600052602060002090601f0160209004810192826200029e5760008555620002e9565b82601f10620002b957805160ff1916838001178555620002e9565b82800160010185558215620002e9579182015b82811115620002e9578251825591602001919060010190620002cc565b50620002f7929150620002fb565b5090565b5b80821115620002f75760008155600101620002fc565b600082198211156200033457634e487b7160e01b600052601160045260246000fd5b500190565b600181811c908216806200034e57607f821691505b6020821081036200036f57634e487b7160e01b600052602260045260246000fd5b50919050565b610ed180620003856000396000f3fe608060405234801561001057600080fd5b506004361061014d5760003560e01c8063715018a6116100c3578063a9059cbb1161007c578063a9059cbb146102a3578063beb0a416146102b6578063dd62ed3e146102be578063f2fde38b146102f7578063f7448a311461030a578063f9f95a0f1461031d57600080fd5b8063715018a61461023f5780637532b4ac146102475780638da5cb5b1461025a57806395d89b41146102755780639b72ec5b1461027d578063a457c2d71461029057600080fd5b8063313ce56711610115578063313ce567146101cd57806339509351146101e2578063401e3843146101f5578063490f23b8146101fd5780636f9fb98a1461021057806370a082311461021657600080fd5b806306fdde0314610152578063095ea7b31461017057806318160ddd14610193578063196431b0146101a557806323b872dd146101ba575b600080fd5b61015a610330565b6040516101679190610c23565b60405180910390f35b61018361017e366004610c6d565b6103c2565b6040519015158152602001610167565b6007545b604051908152602001610167565b6101b86101b3366004610c97565b6103d8565b005b6101836101c8366004610cb2565b61042f565b60065460405160ff9091168152602001610167565b6101836101f0366004610c6d565b610499565b6101836104cf565b6101b861020b366004610cee565b610505565b47610197565b610197610224366004610c97565b6001600160a01b031660009081526001602052604090205490565b6101b8610534565b610197610255366004610cee565b61056a565b6000546040516001600160a01b039091168152602001610167565b61015a610587565b6101b861028b366004610c97565b610596565b61018361029e366004610c6d565b6105e1565b6101836102b1366004610c6d565b610630565b61015a61063d565b6101976102cc366004610d07565b6001600160a01b03918216600090815260026020908152604080832093909416825291909152205490565b6101b8610305366004610c97565b61064c565b610183610318366004610c6d565b6106e7565b61018361032b366004610cee565b6107ab565b60606004805461033f90610d3a565b80601f016020809104026020016040519081016040528092919081815260200182805461036b90610d3a565b80156103b85780601f1061038d576101008083540402835291602001916103b8565b820191906000526020600020905b81548152906001019060200180831161039b57829003601f168201915b5050505050905090565b60006103cf3384846107f5565b50600192915050565b6000546001600160a01b0316331461040b5760405162461bcd60e51b815260040161040290610d74565b60405180910390fd5b6001600160a01b03166000908152600360205260409020805460ff19166001179055565b600061043c8484846108b8565b5061048f843361048a85604051806060016040528060288152602001610e4f602891396001600160a01b038a1660009081526002602090815260408083203384529091529020549190610ae0565b6107f5565b5060019392505050565b3360008181526002602090815260408083206001600160a01b038716845290915281205490916103cf91859061048a90866107e9565b600080546001600160a01b031633146104fa5760405162461bcd60e51b815260040161040290610d74565b506000600a55600190565b6000546001600160a01b0316331461052f5760405162461bcd60e51b815260040161040290610d74565b600955565b6000546001600160a01b0316331461055e5760405162461bcd60e51b815260040161040290610d74565b6105686000610b0c565b565b600061058160095483610b5c90919063ffffffff16565b92915050565b60606005805461033f90610d3a565b6000546001600160a01b031633146105c05760405162461bcd60e51b815260040161040290610d74565b6001600160a01b03166000908152600360205260409020805460ff19169055565b60006103cf338461048a85604051806060016040528060258152602001610e77602591393360009081526002602090815260408083206001600160a01b038d1684529091529020549190610ae0565b600061048f3384846108b8565b60606008805461033f90610d3a565b6000546001600160a01b031633146106765760405162461bcd60e51b815260040161040290610d74565b6001600160a01b0381166106db5760405162461bcd60e51b815260206004820152602660248201527f4f776e61626c653a206e6577206f776e657220697320746865207a65726f206160448201526564647265737360d01b6064820152608401610402565b6106e481610b0c565b50565b600080546001600160a01b031633146107125760405162461bcd60e51b815260040161040290610d74565b826001600160a01b031663a9059cbb6107336000546001600160a01b031690565b6040516001600160e01b031960e084901b1681526001600160a01b039091166004820152602481018590526044016020604051808303816000875af1158015610780573d6000803e3d6000fd5b505050506040513d601f19601f820116820180604052508101906107a49190610da9565b9392505050565b600080546001600160a01b031633146107d65760405162461bcd60e51b815260040161040290610d74565b6107e03383610b68565b5060015b919050565b60006107a48284610de1565b6001600160a01b0383166108575760405162461bcd60e51b8152602060048201526024808201527f45524332303a20617070726f76652066726f6d20746865207a65726f206164646044820152637265737360e01b6064820152608401610402565b6001600160a01b0383811660008181526002602090815260408083209487168084529482529182902085905590518481527f8c5be1e5ebec7d5bd14f71427d1e84f3dd0314c0f7b2291e5b200ac8c7c3b925910160405180910390a3505050565b6001600160a01b038316600090815260036020526040812054829060ff16610a1e5760006108f160095485610b5c90919063ffffffff16565b90506108fd8482610be7565b6001600160a01b0387166000908152600160205260409020549092506109239085610be7565b6001600160a01b03808816600090815260016020526040808220939093559087168152205461095290836107e9565b6001600160a01b03861660009081526001602052604081209190915580527fa6eef7e35abe7026729641147f7915573c7e97b47efa546f5f6e3230263bcb495461099c90826107e9565b6000805260016020527fa6eef7e35abe7026729641147f7915573c7e97b47efa546f5f6e3230263bcb49556007546109d49082610be7565b6007556040518181526000906001600160a01b038816907fddf252ad1be2c89b69c2b068fc378daa952ba7f163c4a11628f55a4df523b3ef9060200160405180910390a350610a8a565b6001600160a01b038516600090815260016020526040902054610a419084610be7565b6001600160a01b038087166000908152600160205260408082209390935590861681522054610a7090846107e9565b6001600160a01b0385166000908152600160205260409020555b836001600160a01b0316856001600160a01b03167fddf252ad1be2c89b69c2b068fc378daa952ba7f163c4a11628f55a4df523b3ef83604051610acf91815260200190565b60405180910390a350909392505050565b60008184841115610b045760405162461bcd60e51b81526004016104029190610c23565b505050900390565b600080546001600160a01b038381166001600160a01b0319831681178455604051919092169283917f8be0079c531659141344cd1fd0a4f28419497f9722a3daafe3b4186f6b6457e09190a35050565b60006107a48284610df9565b604080516000808252602082019092526001600160a01b038416908390604051610b929190610e1b565b60006040518083038185875af1925050503d8060008114610bcf576040519150601f19603f3d011682016040523d82523d6000602084013e610bd4565b606091505b5050905080610be257600080fd5b505050565b60006107a48284610e37565b60005b83811015610c0e578181015183820152602001610bf6565b83811115610c1d576000848401525b50505050565b6020815260008251806020840152610c42816040850160208701610bf3565b601f01601f19169190910160400192915050565b80356001600160a01b03811681146107e457600080fd5b60008060408385031215610c8057600080fd5b610c8983610c56565b946020939093013593505050565b600060208284031215610ca957600080fd5b6107a482610c56565b600080600060608486031215610cc757600080fd5b610cd084610c56565b9250610cde60208501610c56565b9150604084013590509250925092565b600060208284031215610d0057600080fd5b5035919050565b60008060408385031215610d1a57600080fd5b610d2383610c56565b9150610d3160208401610c56565b90509250929050565b600181811c90821680610d4e57607f821691505b602082108103610d6e57634e487b7160e01b600052602260045260246000fd5b50919050565b6020808252818101527f4f776e61626c653a2063616c6c6572206973206e6f7420746865206f776e6572604082015260600190565b600060208284031215610dbb57600080fd5b815180151581146107a457600080fd5b634e487b7160e01b600052601160045260246000fd5b60008219821115610df457610df4610dcb565b500190565b600082610e1657634e487b7160e01b600052601260045260246000fd5b500490565b60008251610e2d818460208701610bf3565b9190910192915050565b600082821015610e4957610e49610dcb565b50039056fe45524332303a207472616e7366657220616d6f756e74206578636565647320616c6c6f77616e636545524332303a2064656372656173656420616c6c6f77616e63652062656c6f77207a65726fa26469706673582212205bcaf828e144449040be9e52feb337b4441aa809cee0b5310542a0d807c771c264736f6c634300080e0033",
  "linkReferences": {},
  "deployedLinkReferences": {}
}