{
  "_format": "hh-sol-artifact-1",
  "contractName": "HoopSettingsFacet",
  "sourceName": "contracts/facets/HoopSettingsFacet.sol",
  "abi": [
    {
      "anonymous": false,
      "inputs": [
        {
          "indexed": false,
          "internalType": "address",
          "name": "oldHoop",
          "type": "address"
        },
        {
          "indexed": false,
          "internalType": "address",
          "name": "newHoop",
          "type": "address"
        }
      ],
      "name": "HANDLE_HOOP_TOKEN_UPDATED",
      "type": "event"
    },
    {
      "anonymous": false,
      "inputs": [
        {
          "indexed": false,
          "internalType": "string",
          "name": "oldURL",
          "type": "string"
        },
        {
          "indexed": false,
          "internalType": "string",
          "name": "newURL",
          "type": "string"
        }
      ],
      "name": "HANDLE_HOOP_URL_UPDATED",
      "type": "event"
    },
    {
      "anonymous": false,
      "inputs": [
        {
          "indexed": false,
          "internalType": "address",
          "name": "oldVault",
          "type": "address"
        },
        {
          "indexed": false,
          "internalType": "address",
          "name": "newVault",
          "type": "address"
        }
      ],
      "name": "HANDLE_HOOP_VAULT_UPDATED",
      "type": "event"
    },
    {
      "anonymous": false,
      "inputs": [
        {
          "indexed": false,
          "internalType": "uint256",
          "name": "oldFee",
          "type": "uint256"
        },
        {
          "indexed": false,
          "internalType": "uint256",
          "name": "newFee",
          "type": "uint256"
        }
      ],
      "name": "HANDLE_MARKET_FEE_UPDATED",
      "type": "event"
    },
    {
      "anonymous": false,
      "inputs": [
        {
          "indexed": false,
          "internalType": "bytes32",
          "name": "oldMerkleRoot",
          "type": "bytes32"
        },
        {
          "indexed": false,
          "internalType": "bytes32",
          "name": "newMerkleRoot",
          "type": "bytes32"
        }
      ],
      "name": "HANDLE_MERKLE_ROOT_UPDATED",
      "type": "event"
    },
    {
      "inputs": [
        {
          "internalType": "string",
          "name": "_url",
          "type": "string"
        }
      ],
      "name": "setHoopImageURL",
      "outputs": [],
      "stateMutability": "nonpayable",
      "type": "function"
    },
    {
      "inputs": [
        {
          "internalType": "address",
          "name": "_contract",
          "type": "address"
        }
      ],
      "name": "setHoopToken",
      "outputs": [],
      "stateMutability": "nonpayable",
      "type": "function"
    },
    {
      "inputs": [
        {
          "internalType": "bytes32",
          "name": "_merkleRoot",
          "type": "bytes32"
        }
      ],
      "name": "setMerkleRoot",
      "outputs": [],
      "stateMutability": "nonpayable",
      "type": "function"
    },
    {
      "inputs": [
        {
          "internalType": "address",
          "name": "_contract",
          "type": "address"
        }
      ],
      "name": "setVaultAddress",
      "outputs": [],
      "stateMutability": "nonpayable",
      "type": "function"
    }
  ],
  "bytecode": "0x608060405234801561001057600080fd5b50610681806100206000396000f3fe608060405234801561001057600080fd5b506004361061004c5760003560e01c80637cb647591461005157806385535cc514610066578063bfcfafb514610079578063dc96362f1461008c575b600080fd5b61006461005f366004610466565b61009f565b005b61006461007436600461047f565b61011e565b61006461008736600461047f565b6101b0565b61006461009a3660046104c5565b610242565b6100a7610352565b7fedcd8c728f595f855e81480758ad7c02f2ebe1a9550fcf35751583a7d0a6c2d6805490829055604080518281526020810184905260008051602061062c83398151915292917f1e426f07e0f84b5ff7f636286bd84421653504c9d145bc5cd653217e852debec91015b60405180910390a1505050565b610126610352565b7fedcd8c728f595f855e81480758ad7c02f2ebe1a9550fcf35751583a7d0a6c2d380546001600160a01b038381166001600160a01b0319831681179093556040805191909216808252602082019390935260008051602061062c83398151915292917f64a12950d3c70e1e82e59c0a321a8a9667f4ca698e9ddd2367f6bcaf222914489101610111565b6101b8610352565b7fedcd8c728f595f855e81480758ad7c02f2ebe1a9550fcf35751583a7d0a6c2d580546001600160a01b038381166001600160a01b0319831681179093556040805191909216808252602082019390935260008051602061062c83398151915292917fca9172adedc28b8fce074ec2e3bda523c145ae997a77ce13b544621ee0b12d209101610111565b61024a610352565b7fedcd8c728f595f855e81480758ad7c02f2ebe1a9550fcf35751583a7d0a6c2d7805460008051602061062c8339815191529160009161028990610576565b80601f01602080910402602001604051908101604052809291908181526020018280546102b590610576565b80156103025780601f106102d757610100808354040283529160200191610302565b820191906000526020600020905b8154815290600101906020018083116102e557829003601f168201915b505086519394506103209360098701935060208801925090506103cd565b507f96fd5a15bf3ec94679f566624de1b5c1dce95157b65eed4f777d991366bc13b981846040516101119291906105fd565b60008051602061062c833981519152600401546001600160a01b031633146103cb5760405162461bcd60e51b815260206004820152602260248201527f4c69624469616d6f6e643a204d75737420626520636f6e7472616374206f776e60448201526132b960f11b606482015260840160405180910390fd5b565b8280546103d990610576565b90600052602060002090601f0160209004810192826103fb5760008555610441565b82601f1061041457805160ff1916838001178555610441565b82800160010185558215610441579182015b82811115610441578251825591602001919060010190610426565b5061044d929150610451565b5090565b5b8082111561044d5760008155600101610452565b60006020828403121561047857600080fd5b5035919050565b60006020828403121561049157600080fd5b81356001600160a01b03811681146104a857600080fd5b9392505050565b634e487b7160e01b600052604160045260246000fd5b6000602082840312156104d757600080fd5b813567ffffffffffffffff808211156104ef57600080fd5b818401915084601f83011261050357600080fd5b813581811115610515576105156104af565b604051601f8201601f19908116603f0116810190838211818310171561053d5761053d6104af565b8160405282815287602084870101111561055657600080fd5b826020860160208301376000928101602001929092525095945050505050565b600181811c9082168061058a57607f821691505b6020821081036105aa57634e487b7160e01b600052602260045260246000fd5b50919050565b6000815180845260005b818110156105d6576020818501810151868301820152016105ba565b818111156105e8576000602083870101525b50601f01601f19169290920160200192915050565b60408152600061061060408301856105b0565b828103602084015261062281856105b0565b9594505050505056feedcd8c728f595f855e81480758ad7c02f2ebe1a9550fcf35751583a7d0a6c2cea26469706673582212209ac86df7668a34020bcddf869c2fd55589345d522fffe09a2b01a66c72cd9f2e64736f6c634300080e0033",
  "linkReferences": {},
  "deployedLinkReferences": {}
}