{
  "_format": "hh-sol-artifact-1",
  "contractName": "HoopNFTInfoFacet",
  "sourceName": "contracts/facets/HoopNFTInfoFacet.sol",
  "abi": [
    {
      "inputs": [
        {
          "internalType": "address",
          "name": "_contract",
          "type": "address"
        },
        {
          "internalType": "uint256",
          "name": "_tokenId",
          "type": "uint256"
        }
      ],
      "name": "getAssetNameByTokenId",
      "outputs": [
        {
          "internalType": "string",
          "name": "",
          "type": "string"
        }
      ],
      "stateMutability": "view",
      "type": "function"
    },
    {
      "inputs": [
        {
          "internalType": "address",
          "name": "_contract",
          "type": "address"
        },
        {
          "internalType": "uint256",
          "name": "_tokenId",
          "type": "uint256"
        }
      ],
      "name": "getAssetPropertiesByTokenId",
      "outputs": [
        {
          "internalType": "string",
          "name": "",
          "type": "string"
        }
      ],
      "stateMutability": "view",
      "type": "function"
    },
    {
      "inputs": [
        {
          "internalType": "address",
          "name": "_contract",
          "type": "address"
        },
        {
          "internalType": "uint256",
          "name": "_tokenId",
          "type": "uint256"
        }
      ],
      "name": "getAssetURI",
      "outputs": [
        {
          "internalType": "string",
          "name": "",
          "type": "string"
        }
      ],
      "stateMutability": "view",
      "type": "function"
    },
    {
      "inputs": [
        {
          "internalType": "address",
          "name": "_address",
          "type": "address"
        },
        {
          "internalType": "uint256",
          "name": "catalogId",
          "type": "uint256"
        }
      ],
      "name": "getBalances",
      "outputs": [
        {
          "internalType": "string",
          "name": "",
          "type": "string"
        }
      ],
      "stateMutability": "view",
      "type": "function"
    },
    {
      "inputs": [
        {
          "internalType": "uint256",
          "name": "_tokenId",
          "type": "uint256"
        }
      ],
      "name": "getCollectionByTokenId",
      "outputs": [
        {
          "internalType": "string",
          "name": "",
          "type": "string"
        }
      ],
      "stateMutability": "view",
      "type": "function"
    },
    {
      "inputs": [
        {
          "internalType": "uint256",
          "name": "_tokenId",
          "type": "uint256"
        }
      ],
      "name": "getHashPowerByTokenId",
      "outputs": [
        {
          "internalType": "uint256",
          "name": "",
          "type": "uint256"
        }
      ],
      "stateMutability": "view",
      "type": "function"
    },
    {
      "inputs": [
        {
          "internalType": "uint256",
          "name": "_tokenId",
          "type": "uint256"
        }
      ],
      "name": "getImage",
      "outputs": [
        {
          "internalType": "string",
          "name": "",
          "type": "string"
        }
      ],
      "stateMutability": "view",
      "type": "function"
    },
    {
      "inputs": [
        {
          "internalType": "uint256",
          "name": "_tokenId",
          "type": "uint256"
        }
      ],
      "name": "getMintPriceByTokenId",
      "outputs": [
        {
          "internalType": "uint256",
          "name": "",
          "type": "uint256"
        }
      ],
      "stateMutability": "view",
      "type": "function"
    },
    {
      "inputs": [
        {
          "internalType": "uint256",
          "name": "_tokenId",
          "type": "uint256"
        }
      ],
      "name": "getUri",
      "outputs": [
        {
          "internalType": "string",
          "name": "",
          "type": "string"
        }
      ],
      "stateMutability": "view",
      "type": "function"
    }
  ],
  "bytecode": "0x608060405234801561001057600080fd5b50612ded806100206000396000f3fe608060405234801561001057600080fd5b50600436106100935760003560e01c8063430079431161006657806343007943146101045780637fdc9fc814610117578063da0544aa1461012a578063ebac5b001461013d578063fe0580051461015057600080fd5b8063088e9922146100985780630d88dd36146100be5780632607aafa146100de57806339b488e3146100f1575b600080fd5b6100ab6100a63660046124ac565b610163565b6040519081526020015b60405180910390f35b6100d16100cc3660046124ac565b610174565b6040516100b591906124f5565b6100d16100ec3660046124ac565b61056c565b6100d16100ff366004612528565b610708565b6100ab6101123660046124ac565b610b23565b6100d1610125366004612528565b610b2e565b6100d16101383660046124ac565b610f84565b6100d161014b366004612528565b6116b7565b6100d161015e366004612528565b611725565b600061016e82611804565b92915050565b604080518082019091526000815260606020820181905290600080516020612d78833981519152906101a5816118d2565b9050606060006101b886620f42406118f5565b905060006101d460016101ce89620f4240611908565b90611914565b90506101df8761056c565b60408051808201909152600d81526c18dbdb1b1958dd1a5bdb97da59609a1b602082015290935061021290859084611920565b60408051808201825260048152636e616d6560e01b6020808301919091526000868152600e8a0182528381208682529091529190912080549296506102e89261025a90612560565b80601f016020809104026020016040519081016040528092919081815260200182805461028690612560565b80156102d35780601f106102a8576101008083540402835291602001916102d3565b820191906000526020600020905b8154815290600101906020018083116102b657829003601f168201915b5050505050866119c79092919063ffffffff16565b6000838152600f87016020908152604091829020548251808401909352600b83526a636f6c6c656374696f6e7360a81b9183019190915291955061032d908690611a6d565b945060005b81811015610547576000848152600e8801602090815260408083208484529091528120805461036090612560565b80601f016020809104026020016040519081016040528092919081815260200182805461038c90612560565b80156103d95780601f106103ae576101008083540402835291602001916103d9565b820191906000526020600020905b8154815290600101906020018083116103bc57829003601f168201915b5050506000888152600e8c0160209081526040808320888452909152902060050154929350505060ff1615610534576000858152600e890160209081526040808320858452909152902060010154610430886118d2565b975061043b8161056c565b6040805180820190915260078152661d1bdad95b925960ca1b602082015290975061046890899083611920565b6040805180820190915260048152636e616d6560e01b6020820152909850610492908990846119c7565b604080518082019091526005815264696d61676560d81b60208201529098506104bd908990896119c7565b97506104f5604051806040016040528060098152602001683430b9b42837bbb2b960b91b8152506104ed83610b23565b8a9190611920565b9750610525604051806040016040528060098152602001686d696e74507269636560b81b8152506104ed83610163565b975061053088611a91565b9750505b508061053f816125b0565b915050610332565b5061055185611ab4565b945061055c85611a91565b6020015198975050505050505050565b6060600061057d83620f42406118f5565b9050600061059360016101ce86620f4240611908565b6000838152600080516020612d9883398151915260209081526040808320848452909152902060050154909150600080516020612d788339815191529060609060ff166106155760405162461bcd60e51b815260206004820152600b60248201526a2ab735b737bbb71024a21760a91b60448201526064015b60405180910390fd5b6000848152600e8301602090815260408083208684529091529020805461063b90612560565b80601f016020809104026020016040519081016040528092919081815260200182805461066790612560565b80156106b45780601f10610689576101008083540402835291602001916106b4565b820191906000526020600020905b81548152906001019060200180831161069757829003601f168201915b5050505050905081600901816106dc6106d7600187611ad790919063ffffffff16565b611ae3565b6040516020016106ee93929190612662565b604051602081830303815290604052945050505050919050565b604080518082019091526000815260606020820181905290600080516020612d7883398151915290610739816118d2565b90506060600061074c86620f42406118f5565b9050600061076260016101ce89620f4240611908565b905061076d8761056c565b6040805180820190915260078152661d1bdad95b925960ca1b602082015290935061079a90859089611920565b60408051808201825260048152636e616d6560e01b602080830191909152600086815260168a0182528381208682529091529190912080549296506107e29261025a90612560565b604080518082019091526005815264696d61676560d81b602082015290945061080d908590856119c7565b9350610845604051806040016040528060098152602001683430b9b42837bbb2b960b91b81525061083d89610b23565b869190611920565b60408051808201909152600881526718dbdb9d1c9858dd60c21b60208201529094506108739085908a611c01565b600b860154604080518082019091526008815267666561747572657360c01b6020820152919550906108a6908690611a6d565b945060005b81811015610afd57600084815260168801602090815260408083208484528252808320600401546001600160a01b038e8116855260138c0184528285208e865284528285206101009092041680855292529091205460ff1615610aea576001600160a01b03808c16600090815260138a01602090815260408083208e8452825280832093851683529290522060010154610944886118d2565b975061094f8161056c565b6040805180820190915260078152661d1bdad95b925960ca1b602082015290975061097c90899083611920565b60408051808201825260048152636e616d6560e01b60208083019190915260008a815260168e018252838120888252909152919091208054929a50610a52926109c490612560565b80601f01602080910402602001604051908101604052809291908181526020018280546109f090612560565b8015610a3d5780601f10610a1257610100808354040283529160200191610a3d565b820191906000526020600020905b815481529060010190602001808311610a2057829003601f168201915b50505050508a6119c79092919063ffffffff16565b604080518082019091526005815264696d61676560d81b6020820152909850610a7d908990896119c7565b9750610aad604051806040016040528060098152602001683430b9b42837bbb2b960b91b8152506104ed83610b23565b60408051808201909152600881526718dbdb9d1c9858dd60c21b6020820152909850610adb90899084611c01565b9750610ae688611a91565b9750505b5080610af5816125b0565b9150506108ab565b50610b0785611ab4565b9450610b1285611a91565b602001519998505050505050505050565b600061016e82611c68565b6060600080516020612d7883398151915282610b7f5760405162461bcd60e51b815260206004820152601060248201526f496e76616c696420636174616c6f672160801b604482015260640161060c565b6000806000610ba1604051806040016040528060008152602001606081525090565b610baa81611cc0565b905060005b6000888152600f870160205260409020548111610f7a576000888152601687016020908152604080832084845290915290206004015460ff1615610f6857600088815260168701602090815260408083208484529091528120600481015481546101009091046001600160a01b0316929190610c2a90612560565b80601f0160208091040260200160405190810160405280929190818152602001828054610c5690612560565b8015610ca35780601f10610c7857610100808354040283529160200191610ca3565b820191906000526020600020905b815481529060010190602001808311610c8657829003601f168201915b50505050509050600080836001600160a01b031663b6942dcb8e8e886040518463ffffffff1660e01b8152600401610cf9939291906001600160a01b039390931683526020830191909152604082015260600190565b600060405180830381865afa158015610d16573d6000803e3d6000fd5b505050506040513d6000823e601f3d908101601f19168201604052610d3e919081019061276a565b91509150610d4b866118d2565b60408051808201909152600881526718dbdb9d1c9858dd60c21b6020820152909650610d7990879086611c01565b6040805180820190915260048152636e616d6560e01b6020820152909650610da3908790856119c7565b9550610dd86040518060400160405280600881526020016762616c616e63657360c01b81525087611a6d90919063ffffffff16565b82519096506000805b82811015610f4a57848181518110610dfb57610dfb6127ce565b602002602001015191506000848281518110610e1957610e196127ce565b60200260200101519050600083118015610e335750600081115b15610f3757610e418a6118d2565b6040805180820190915260078152661d1bdad95b925960ca1b6020820152909a50610e6e908b9085611920565b9950610ebd6040518060400160405280600781526020016662616c616e636560c81b815250868481518110610ea557610ea56127ce565b60200260200101518c6119209092919063ffffffff16565b9950610ef160405180604001604052806005815260200164696d61676560d81b815250610ee98561056c565b8c91906119c7565b9950610f29604051806040016040528060098152602001683430b9b42837bbb2b960b91b815250610f2185610b23565b8c9190611920565b9950610f348a611a91565b99505b5080610f42816125b0565b915050610de1565b50610f5488611ab4565b9750610f5f88611a91565b97505050505050505b80610f72816125b0565b915050610baf565b5061055c81611ab4565b60606000610f9583620f42406118f5565b90506000610fab60016101ce86620f4240611908565b6000838152600080516020612d9883398151915260209081526040808320848452909152902060050154909150606090600080516020612d7883398151915290829060ff1661102a5760405162461bcd60e51b815260206004820152600b60248201526a2ab735b737bbb71024a21760a91b604482015260640161060c565b604080518082019091526000815260606020820152611048816118d2565b90506110538861056c565b6000878152600e850160209081526040808320898452909152902080549195509061107d90612560565b80601f01602080910402602001604051908101604052809291908181526020018280546110a990612560565b80156110f65780601f106110cb576101008083540402835291602001916110f6565b820191906000526020600020905b8154815290600101906020018083116110d957829003601f168201915b505060408051808201825260048152636e616d6560e01b60208083019190915260008d8152600e8b0182528381208d82529091529190912080549597506111d49591945092506111469150612560565b80601f016020809104026020016040519081016040528092919081815260200182805461117290612560565b80156111bf5780601f10611194576101008083540402835291602001916111bf565b820191906000526020600020905b8154815290600101906020018083116111a257829003601f168201915b5050505050836119c79092919063ffffffff16565b905061122b6040518060400160405280600a815260200169637265617465645f627960b01b81525060405180604001604052806006815260200165484f4f504f4560d01b815250836119c79092919063ffffffff16565b905061129b6040518060400160405280600c81526020016b195e1d195c9b985b17dd5c9b60a21b8152506040518060400160405280601c81526020017f68747470733a2f2f7777772e686f6f706f652e76656e74757265732f00000000815250836119c79092919063ffffffff16565b905061130a6040518060400160405280600b81526020016a3232b9b1b934b83a34b7b760a91b8152506040518060400160405280601a81526020017f486f6f706f652056656e7475726573204d656d626572204e4654000000000000815250836119c79092919063ffffffff16565b604080518082019091526005815264696d61676560d81b602082015290915061136a9060098501846113406106d78a6001611ad7565b60405160200161135293929190612662565b60408051601f198184030181529190528391906119c7565b90506113a16040518060400160405280600a8152602001696174747269627574657360b01b81525082611a6d90919063ffffffff16565b90506113ac816118d2565b90506114076040518060400160405280600a81526020016974726169745f7479706560b01b8152506040518060400160405280600a8152602001692430b9b4102837bbb2b960b11b815250836119c79092919063ffffffff16565b90506114666040518060400160405280600c81526020016b646973706c61795f7479706560a01b8152506040518060400160405280600c81526020016b3137b7b9ba2fb73ab6b132b960a11b815250836119c79092919063ffffffff16565b604080518082018252600581526476616c756560d81b60208083019190915260008a8152600e880182528381208a825290915291909120600201549192506114b091839190611920565b90506114bb81611a91565b90506114c6816118d2565b90506115266040518060400160405280600a81526020016974726169745f7479706560b01b8152506040518060400160405280600f81526020016e4d656d62657273686970205479706560881b815250836119c79092919063ffffffff16565b604080518082018252600581526476616c756560d81b60208083019190915260008a8152600e880182528381208a825290915291909120805492935061156f9261114690612560565b905061157a81611a91565b9050611585816118d2565b90506115dc6040518060400160405280600a81526020016974726169745f7479706560b01b8152506040518060400160405280600681526020016552617269747960d01b815250836119c79092919063ffffffff16565b905061163b6040518060400160405280600c81526020016b646973706c61795f7479706560a01b8152506040518060400160405280600c81526020016b3137b7b9ba2fb73ab6b132b960a11b815250836119c79092919063ffffffff16565b604080518082018252600581526476616c756560d81b60208083019190915260008a8152600e880182528381208a825290915291909120600301549192506116969161168690611ae3565b60405160200161135291906127e4565b90506116a181611a91565b90506116ac81611ab4565b905061055c81611a91565b6060600080516020612d788339815191527fedcd8c728f595f855e81480758ad7c02f2ebe1a9550fcf35751583a7d0a6c2d76116f285611ce3565b6116fb85611ae3565b60405160200161170d93929190612818565b60405160208183030381529060405291505092915050565b6001600160a01b03821660009081527fedcd8c728f595f855e81480758ad7c02f2ebe1a9550fcf35751583a7d0a6c2e2602052604090206001018054606091600080516020612d788339815191529161177d90612560565b80601f01602080910402602001604051908101604052809291908181526020018280546117a990612560565b80156117f65780601f106117cb576101008083540402835291602001916117f6565b820191906000526020600020905b8154815290600101906020018083116117d957829003601f168201915b505050505091505092915050565b60008061181483620f42406118f5565b9050600061182a60016101ce86620f4240611908565b6000838152600080516020612d9883398151915260209081526040808320848452909152902060050154909150600080516020612d788339815191529060ff166118ae5760405162461bcd60e51b8152602060048201526015602482015274436f6c6c656374696f6e206e6f742065786973742160581b604482015260640161060c565b6000928352600e016020908152604080842092845291905290206004015492915050565b60408051808201909152600081526060602082015261016e82607b60f81b611e9d565b60006119018284612886565b9392505050565b6000611901828461289a565b600061190182846128ae565b604080518082019091526000815260606020820152835160001315611980578360200151600b60fa1b8461195385611ae3565b60405160200161196694939291906128c5565b60408051601f1981840301815291905260208501526119b7565b83602001518361198f84611ae3565b6040516020016119a193929190612937565b60408051601f1981840301815291905260208501525b50508151600160ff1b1782525090565b60408051808201909152600081526060602082015260006119e783611f3e565b9050600085600001511215611a2d57602080860151604051611a1392600b60fa1b918891869101612998565b60408051601f198184030181529190526020860152611a5a565b602080860151604051611a44928791859101612a14565b60408051601f1981840301815291905260208601525b8451600160ff1b17855250929392505050565b6040805180820190915260008152606060208201526119018383605b60f81b61239b565b60408051808201909152600081526060602082015261016e82607d60f81b612441565b60408051808201909152600081526060602082015261016e82605d60f81b612441565b60006119018284612a80565b606081600003611b0a5750506040805180820190915260018152600360fc1b602082015290565b8160005b8115611b345780611b1e816125b0565b9150611b2d9050600a83612886565b9150611b0e565b60008167ffffffffffffffff811115611b4f57611b4f6126b9565b6040519080825280601f01601f191660200182016040528015611b79576020820181803683370190505b509050815b8515611bf857611b8f600a87612886565b611b9a90600a612a98565b611ba490876128ae565b611baf906030612ab7565b60f81b82611bbc83612adc565b92508281518110611bcf57611bcf6127ce565b60200101906001600160f81b031916908160001a905350611bf1600a87612886565b9550611b7e565b50949350505050565b604080518082019091526000815260606020820152835160001315611c47578360200151600b60fa1b84611c3485611ce3565b6040516020016119669493929190612998565b836020015183611c5684611ce3565b6040516020016119a193929190612a14565b600080611c7883620f42406118f5565b90506000611c8e60016101ce86620f4240611908565b6000928352600080516020612d9883398151915260209081526040808520928552919052909120600201549392505050565b60408051808201909152600081526060602082015261016e82605b60f81b611e9d565b60408051602a80825260608281019093526001600160a01b038416916f181899199a1a9b1b9c1cb0b131b232b360811b9160009190602082018180368337019050509050600360fc1b81600081518110611d3f57611d3f6127ce565b60200101906001600160f81b031916908160001a905350600f60fb1b81600181518110611d6e57611d6e6127ce565b60200101906001600160f81b031916908160001a90535060005b6014811015611bf85782600485611da084600c612a80565b60208110611db057611db06127ce565b1a60f81b6001600160f81b031916901c60f81c60ff1660108110611dd657611dd66127ce565b1a60f81b82611de6836002612a98565b611df1906002612a80565b81518110611e0157611e016127ce565b60200101906001600160f81b031916908160001a9053508284611e2583600c612a80565b60208110611e3557611e356127ce565b1a600f1660108110611e4957611e496127ce565b1a60f81b82611e59836002612a98565b611e64906003612a80565b81518110611e7457611e746127ce565b60200101906001600160f81b031916908160001a90535080611e95816125b0565b915050611d88565b604080518082019091526000815260606020820152825160001315611ef157602080840151604051611ed792600b60fa1b91869101612af3565b60408051601f198184030181529190526020840152611f1c565b602080840151604051611f0692859101612b26565b60408051601f1981840301815291905260208401525b82516001600160ff1b031680845283611f3482612b55565b9052509192915050565b6060816000805b8251811015612118578251601760fa1b90849083908110611f6857611f686127ce565b01602001516001600160f81b03191603611f855760019150612118565b8251601160f91b90849083908110611f9f57611f9f6127ce565b01602001516001600160f81b03191603611fbc5760019150612118565b8251602f60f81b90849083908110611fd657611fd66127ce565b01602001516001600160f81b03191603611ff35760019150612118565b8251600960f81b9084908390811061200d5761200d6127ce565b01602001516001600160f81b0319160361202a5760019150612118565b8251600360fa1b90849083908110612044576120446127ce565b01602001516001600160f81b031916036120615760019150612118565b8251600560f91b9084908390811061207b5761207b6127ce565b01602001516001600160f81b031916036120985760019150612118565b8251600d60f81b908490839081106120b2576120b26127ce565b01602001516001600160f81b031916036120cf5760019150612118565b8251600160fb1b908490839081106120e9576120e96127ce565b01602001516001600160f81b031916036121065760019150612118565b80612110816125b0565b915050611f45565b508061212657509192915050565b60005b8251811015612393578251601760fa1b9084908390811061214c5761214c6127ce565b01602001516001600160f81b0319160361218757836040516020016121719190612b6d565b6040516020818303038152906040529350612381565b8251601160f91b908490839081106121a1576121a16127ce565b01602001516001600160f81b031916036121c657836040516020016121719190612b93565b8251602f60f81b908490839081106121e0576121e06127ce565b01602001516001600160f81b0319160361220557836040516020016121719190612bb9565b8251600960f81b9084908390811061221f5761221f6127ce565b01602001516001600160f81b0319160361224457836040516020016121719190612bdf565b8251600360fa1b9084908390811061225e5761225e6127ce565b01602001516001600160f81b0319160361228357836040516020016121719190612c05565b8251600560f91b9084908390811061229d5761229d6127ce565b01602001516001600160f81b031916036122c257836040516020016121719190612c2b565b8251600d60f81b908490839081106122dc576122dc6127ce565b01602001516001600160f81b0319160361230157836040516020016121719190612c51565b8251600160fb1b9084908390811061231b5761231b6127ce565b01602001516001600160f81b0319160361234057836040516020016121719190612c77565b83838281518110612353576123536127ce565b602001015160f81c60f81b60405160200161236f929190612b26565b60405160208183030381529060405293505b8061238b816125b0565b915050612129565b505050919050565b6040805180820190915260008152606060208201528351600013156123f1576020808501516040516123d792600b60fa1b918791879101612c9d565b60408051601f19818403018152919052602085015261241e565b602080850151604051612408928691869101612d04565b60408051601f1981840301815291905260208501525b83516001600160ff1b03168085528461243682612b55565b905250929392505050565b60408051808201909152600081526060602082015260208084015160405161246b92859101612b26565b60408051808303601f1901815291905260208401528251600160ff1b178084526001600160ff1b0316156124a557825183611f3482612d62565b5090919050565b6000602082840312156124be57600080fd5b5035919050565b60005b838110156124e05781810151838201526020016124c8565b838111156124ef576000848401525b50505050565b60208152600082518060208401526125148160408501602087016124c5565b601f01601f19169190910160400192915050565b6000806040838503121561253b57600080fd5b82356001600160a01b038116811461255257600080fd5b946020939093013593505050565b600181811c9082168061257457607f821691505b60208210810361259457634e487b7160e01b600052602260045260246000fd5b50919050565b634e487b7160e01b600052601160045260246000fd5b6000600182016125c2576125c261259a565b5060010190565b8054600090600181811c90808316806125e357607f831692505b6020808410820361260457634e487b7160e01b600052602260045260246000fd5b818015612618576001811461262957612656565b60ff19861689528489019650612656565b60008881526020902060005b8681101561264e5781548b820152908501908301612635565b505084890196505b50505050505092915050565b600061266e82866125c9565b845161267e8183602089016124c5565b605f60f81b9101908152835161269b8160018401602088016124c5565b632e706e6760e01b6001929091019182015260050195945050505050565b634e487b7160e01b600052604160045260246000fd5b600082601f8301126126e057600080fd5b8151602067ffffffffffffffff808311156126fd576126fd6126b9565b8260051b604051601f19603f83011681018181108482111715612722576127226126b9565b60405293845285810183019383810192508785111561274057600080fd5b83870191505b8482101561275f57815183529183019190830190612746565b979650505050505050565b6000806040838503121561277d57600080fd5b825167ffffffffffffffff8082111561279557600080fd5b6127a1868387016126cf565b935060208501519150808211156127b757600080fd5b506127c4858286016126cf565b9150509250929050565b634e487b7160e01b600052603260045260246000fd5b61018960f51b8152602f60f81b60028201526000825161280b8160038501602087016124c5565b9190910160030192915050565b600061282482866125c9565b84516128348183602089016124c5565b602f60f81b910190815283516128518160018401602088016124c5565b64173539b7b760d91b6001929091019182015260060195945050505050565b634e487b7160e01b600052601260045260246000fd5b60008261289557612895612870565b500490565b6000826128a9576128a9612870565b500690565b6000828210156128c0576128c061259a565b500390565b600085516128d7818460208a016124c5565b6001600160f81b03198616908301908152601160f91b600182015284516129058160028401602089016124c5565b620111d160ed1b6002929091019182015283516129298160058401602088016124c5565b016005019695505050505050565b600084516129498184602089016124c5565b601160f91b90830190815284516129678160018401602089016124c5565b620111d160ed1b60019290910191820152835161298b8160048401602088016124c5565b0160040195945050505050565b600085516129aa818460208a016124c5565b6001600160f81b03198616908301908152601160f91b6001820181905285516129da816002850160208a016124c5565b63111d101160e11b6002939091019283015284516129ff8160068501602089016124c5565b60069201918201526007019695505050505050565b60008451612a268184602089016124c5565b601160f91b9083018181528551909190612a47816001850160208a016124c5565b63111d101160e11b600193909101928301528451612a6c8160058501602089016124c5565b600592019182015260060195945050505050565b60008219821115612a9357612a9361259a565b500190565b6000816000190483118215151615612ab257612ab261259a565b500290565b600060ff821660ff84168060ff03821115612ad457612ad461259a565b019392505050565b600081612aeb57612aeb61259a565b506000190190565b60008451612b058184602089016124c5565b6001600160f81b031994851692019182525091166001820152600201919050565b60008351612b388184602088016124c5565b6001600160f81b0319939093169190920190815260010192915050565b60006001600160ff1b0182016125c2576125c261259a565b60008251612b7f8184602087016124c5565b61171760f21b920191825250600201919050565b60008251612ba58184602087016124c5565b612e1160f11b920191825250600201919050565b60008251612bcb8184602087016124c5565b615c2f60f01b920191825250600201919050565b60008251612bf18184602087016124c5565b61171d60f21b920191825250600201919050565b60008251612c178184602087016124c5565b612e3360f11b920191825250600201919050565b60008251612c3d8184602087016124c5565b612e3760f11b920191825250600201919050565b60008251612c638184602087016124c5565b612e3960f11b920191825250600201919050565b60008251612c898184602087016124c5565b612e3160f11b920191825250600201919050565b60008551612caf818460208a016124c5565b6001600160f81b0319868116918401918252601160f91b60018301528551612cde816002850160208a016124c5565b620111d160ed1b6002939091019283015293909316600584015250506006019392505050565b60008451612d168184602089016124c5565b601160f91b9083019081528451612d348160018401602089016124c5565b620111d160ed1b600192909101918201526001600160f81b0319939093166004840152505060050192915050565b6000600160ff1b8201612aeb57612aeb61259a56feedcd8c728f595f855e81480758ad7c02f2ebe1a9550fcf35751583a7d0a6c2ceedcd8c728f595f855e81480758ad7c02f2ebe1a9550fcf35751583a7d0a6c2dca2646970667358221220cd9d366eb431252c05ac61d3c02728453ec9a765343dea7ea29c7954e39ce52e64736f6c634300080e0033",
  "linkReferences": {},
  "deployedLinkReferences": {}
}