{
  "_format": "hh-sol-artifact-1",
  "contractName": "HoopNFT",
  "sourceName": "contracts/HoopNFT.sol",
  "abi": [
    {
      "inputs": [
        {
          "internalType": "string",
          "name": "_name",
          "type": "string"
        },
        {
          "internalType": "uint256",
          "name": "_totalSupply",
          "type": "uint256"
        },
        {
          "internalType": "address",
          "name": "_factoryAddress",
          "type": "address"
        }
      ],
      "stateMutability": "nonpayable",
      "type": "constructor"
    },
    {
      "anonymous": false,
      "inputs": [
        {
          "indexed": true,
          "internalType": "address",
          "name": "account",
          "type": "address"
        },
        {
          "indexed": true,
          "internalType": "address",
          "name": "operator",
          "type": "address"
        },
        {
          "indexed": false,
          "internalType": "bool",
          "name": "approved",
          "type": "bool"
        }
      ],
      "name": "ApprovalForAll",
      "type": "event"
    },
    {
      "anonymous": false,
      "inputs": [
        {
          "indexed": true,
          "internalType": "address",
          "name": "operator",
          "type": "address"
        },
        {
          "indexed": true,
          "internalType": "address",
          "name": "from",
          "type": "address"
        },
        {
          "indexed": true,
          "internalType": "address",
          "name": "to",
          "type": "address"
        },
        {
          "indexed": false,
          "internalType": "uint256[]",
          "name": "ids",
          "type": "uint256[]"
        },
        {
          "indexed": false,
          "internalType": "uint256[]",
          "name": "values",
          "type": "uint256[]"
        }
      ],
      "name": "TransferBatch",
      "type": "event"
    },
    {
      "anonymous": false,
      "inputs": [
        {
          "indexed": true,
          "internalType": "address",
          "name": "operator",
          "type": "address"
        },
        {
          "indexed": true,
          "internalType": "address",
          "name": "from",
          "type": "address"
        },
        {
          "indexed": true,
          "internalType": "address",
          "name": "to",
          "type": "address"
        },
        {
          "indexed": false,
          "internalType": "uint256",
          "name": "id",
          "type": "uint256"
        },
        {
          "indexed": false,
          "internalType": "uint256",
          "name": "value",
          "type": "uint256"
        }
      ],
      "name": "TransferSingle",
      "type": "event"
    },
    {
      "anonymous": false,
      "inputs": [
        {
          "indexed": false,
          "internalType": "string",
          "name": "value",
          "type": "string"
        },
        {
          "indexed": true,
          "internalType": "uint256",
          "name": "id",
          "type": "uint256"
        }
      ],
      "name": "URI",
      "type": "event"
    },
    {
      "inputs": [],
      "name": "HoopNFTInfoContract",
      "outputs": [
        {
          "internalType": "contract IHoopNFTInfoFacet",
          "name": "",
          "type": "address"
        }
      ],
      "stateMutability": "view",
      "type": "function"
    },
    {
      "inputs": [
        {
          "internalType": "uint256",
          "name": "",
          "type": "uint256"
        },
        {
          "internalType": "address",
          "name": "",
          "type": "address"
        }
      ],
      "name": "_balances",
      "outputs": [
        {
          "internalType": "uint256",
          "name": "",
          "type": "uint256"
        }
      ],
      "stateMutability": "view",
      "type": "function"
    },
    {
      "inputs": [
        {
          "internalType": "uint256",
          "name": "",
          "type": "uint256"
        }
      ],
      "name": "_tokenIDList",
      "outputs": [
        {
          "internalType": "uint256",
          "name": "",
          "type": "uint256"
        }
      ],
      "stateMutability": "view",
      "type": "function"
    },
    {
      "inputs": [
        {
          "internalType": "address",
          "name": "account",
          "type": "address"
        },
        {
          "internalType": "uint256",
          "name": "id",
          "type": "uint256"
        }
      ],
      "name": "balanceOf",
      "outputs": [
        {
          "internalType": "uint256",
          "name": "",
          "type": "uint256"
        }
      ],
      "stateMutability": "view",
      "type": "function"
    },
    {
      "inputs": [
        {
          "internalType": "address[]",
          "name": "accounts",
          "type": "address[]"
        },
        {
          "internalType": "uint256[]",
          "name": "ids",
          "type": "uint256[]"
        }
      ],
      "name": "balanceOfBatch",
      "outputs": [
        {
          "internalType": "uint256[]",
          "name": "",
          "type": "uint256[]"
        }
      ],
      "stateMutability": "view",
      "type": "function"
    },
    {
      "inputs": [
        {
          "internalType": "address",
          "name": "_address",
          "type": "address"
        },
        {
          "internalType": "uint256",
          "name": "categoryId",
          "type": "uint256"
        },
        {
          "internalType": "uint256",
          "name": "categoryItemId",
          "type": "uint256"
        }
      ],
      "name": "checkSubBalances",
      "outputs": [
        {
          "internalType": "uint256[]",
          "name": "",
          "type": "uint256[]"
        },
        {
          "internalType": "uint256[]",
          "name": "",
          "type": "uint256[]"
        }
      ],
      "stateMutability": "view",
      "type": "function"
    },
    {
      "inputs": [
        {
          "internalType": "uint256",
          "name": "_tokenId",
          "type": "uint256"
        }
      ],
      "name": "getAssetFeatures",
      "outputs": [
        {
          "internalType": "string",
          "name": "",
          "type": "string"
        }
      ],
      "stateMutability": "view",
      "type": "function"
    },
    {
      "inputs": [
        {
          "internalType": "uint256",
          "name": "_tokenId",
          "type": "uint256"
        }
      ],
      "name": "getAssetName",
      "outputs": [
        {
          "internalType": "string",
          "name": "",
          "type": "string"
        }
      ],
      "stateMutability": "view",
      "type": "function"
    },
    {
      "inputs": [],
      "name": "getFactoryAddress",
      "outputs": [
        {
          "internalType": "address",
          "name": "",
          "type": "address"
        }
      ],
      "stateMutability": "view",
      "type": "function"
    },
    {
      "inputs": [
        {
          "internalType": "uint256",
          "name": "_tokenId",
          "type": "uint256"
        }
      ],
      "name": "getHashPower",
      "outputs": [
        {
          "internalType": "uint256",
          "name": "",
          "type": "uint256"
        }
      ],
      "stateMutability": "view",
      "type": "function"
    },
    {
      "inputs": [
        {
          "internalType": "uint256",
          "name": "_tokenId",
          "type": "uint256"
        }
      ],
      "name": "getImage",
      "outputs": [
        {
          "internalType": "string",
          "name": "",
          "type": "string"
        }
      ],
      "stateMutability": "view",
      "type": "function"
    },
    {
      "inputs": [
        {
          "internalType": "address",
          "name": "account",
          "type": "address"
        },
        {
          "internalType": "address",
          "name": "operator",
          "type": "address"
        }
      ],
      "name": "isApprovedForAll",
      "outputs": [
        {
          "internalType": "bool",
          "name": "",
          "type": "bool"
        }
      ],
      "stateMutability": "view",
      "type": "function"
    },
    {
      "inputs": [
        {
          "internalType": "address",
          "name": "to",
          "type": "address"
        },
        {
          "internalType": "uint256",
          "name": "id",
          "type": "uint256"
        },
        {
          "internalType": "uint256",
          "name": "amount",
          "type": "uint256"
        },
        {
          "internalType": "bytes",
          "name": "data",
          "type": "bytes"
        }
      ],
      "name": "mintNFT",
      "outputs": [
        {
          "internalType": "bool",
          "name": "",
          "type": "bool"
        }
      ],
      "stateMutability": "nonpayable",
      "type": "function"
    },
    {
      "inputs": [],
      "name": "name",
      "outputs": [
        {
          "internalType": "string",
          "name": "",
          "type": "string"
        }
      ],
      "stateMutability": "view",
      "type": "function"
    },
    {
      "inputs": [
        {
          "internalType": "address",
          "name": "from",
          "type": "address"
        },
        {
          "internalType": "address",
          "name": "to",
          "type": "address"
        },
        {
          "internalType": "uint256[]",
          "name": "ids",
          "type": "uint256[]"
        },
        {
          "internalType": "uint256[]",
          "name": "amounts",
          "type": "uint256[]"
        },
        {
          "internalType": "bytes",
          "name": "data",
          "type": "bytes"
        }
      ],
      "name": "safeBatchTransferFrom",
      "outputs": [],
      "stateMutability": "nonpayable",
      "type": "function"
    },
    {
      "inputs": [
        {
          "internalType": "address",
          "name": "from",
          "type": "address"
        },
        {
          "internalType": "address",
          "name": "to",
          "type": "address"
        },
        {
          "internalType": "uint256",
          "name": "id",
          "type": "uint256"
        },
        {
          "internalType": "uint256",
          "name": "amount",
          "type": "uint256"
        },
        {
          "internalType": "bytes",
          "name": "data",
          "type": "bytes"
        }
      ],
      "name": "safeTransferFrom",
      "outputs": [],
      "stateMutability": "nonpayable",
      "type": "function"
    },
    {
      "inputs": [
        {
          "internalType": "address",
          "name": "operator",
          "type": "address"
        },
        {
          "internalType": "bool",
          "name": "approved",
          "type": "bool"
        }
      ],
      "name": "setApprovalForAll",
      "outputs": [],
      "stateMutability": "nonpayable",
      "type": "function"
    },
    {
      "inputs": [
        {
          "internalType": "address",
          "name": "_address",
          "type": "address"
        }
      ],
      "name": "setFactoryAddress",
      "outputs": [],
      "stateMutability": "nonpayable",
      "type": "function"
    },
    {
      "inputs": [
        {
          "internalType": "bytes4",
          "name": "interfaceId",
          "type": "bytes4"
        }
      ],
      "name": "supportsInterface",
      "outputs": [
        {
          "internalType": "bool",
          "name": "",
          "type": "bool"
        }
      ],
      "stateMutability": "view",
      "type": "function"
    },
    {
      "inputs": [],
      "name": "symbol",
      "outputs": [
        {
          "internalType": "string",
          "name": "",
          "type": "string"
        }
      ],
      "stateMutability": "view",
      "type": "function"
    },
    {
      "inputs": [
        {
          "internalType": "uint256",
          "name": "_tokenId",
          "type": "uint256"
        }
      ],
      "name": "tokenURI",
      "outputs": [
        {
          "internalType": "string",
          "name": "",
          "type": "string"
        }
      ],
      "stateMutability": "view",
      "type": "function"
    },
    {
      "inputs": [],
      "name": "totalSupply",
      "outputs": [
        {
          "internalType": "uint256",
          "name": "",
          "type": "uint256"
        }
      ],
      "stateMutability": "view",
      "type": "function"
    },
    {
      "inputs": [
        {
          "internalType": "uint256",
          "name": "_tokenId",
          "type": "uint256"
        }
      ],
      "name": "uri",
      "outputs": [
        {
          "internalType": "string",
          "name": "",
          "type": "string"
        }
      ],
      "stateMutability": "view",
      "type": "function"
    }
  ],
  "bytecode": "0x60806040523480156200001157600080fd5b5060405162001f9a38038062001f9a83398101604081905262000034916200015a565b82516200004990600590602086019062000081565b50600691909155600380546001600160a01b039092166001600160a01b03199283168117909155600480549092161790555062000291565b8280546200008f9062000255565b90600052602060002090601f016020900481019282620000b35760008555620000fe565b82601f10620000ce57805160ff1916838001178555620000fe565b82800160010185558215620000fe579182015b82811115620000fe578251825591602001919060010190620000e1565b506200010c92915062000110565b5090565b5b808211156200010c576000815560010162000111565b634e487b7160e01b600052604160045260246000fd5b80516001600160a01b03811681146200015557600080fd5b919050565b6000806000606084860312156200017057600080fd5b83516001600160401b03808211156200018857600080fd5b818601915086601f8301126200019d57600080fd5b815181811115620001b257620001b262000127565b604051601f8201601f19908116603f01168101908382118183101715620001dd57620001dd62000127565b81604052828152602093508984848701011115620001fa57600080fd5b600091505b828210156200021e5784820184015181830185015290830190620001ff565b82821115620002305760008484830101525b80975050505080860151935050506200024c604085016200013d565b90509250925092565b600181811c908216806200026a57607f821691505b6020821081036200028b57634e487b7160e01b600052602260045260246000fd5b50919050565b611cf980620002a16000396000f3fe608060405234801561001057600080fd5b506004361061014c5760003560e01c806383c17c55116100c3578063c87b56dd1161007c578063c87b56dd146102f0578063d123e12514610303578063dd5896b114610316578063e985e9c514610329578063f242432a14610365578063fc25a4da1461037857600080fd5b806383c17c551461026357806395d89b4114610276578063a22cb46514610298578063a9c2e36c146102ab578063b6942dcb146102bc578063bf8249b6146102dd57600080fd5b80631ee33af9116101155780631ee33af9146101ca57806324fc099b146101f55780632607aafa146102085780632eb2c2d61461021b5780634b641181146102305780634e1273f41461024357600080fd5b8062fdd58e1461015157806301ffc9a71461017757806306fdde031461019a5780630e89341c146101af57806318160ddd146101c2575b600080fd5b61016461015f366004611379565b6103a0565b6040519081526020015b60405180910390f35b61018a6101853660046113bc565b610437565b604051901515815260200161016e565b6101a2610489565b60405161016e9190611435565b6101a26101bd366004611448565b61051b565b600654610164565b6004546101dd906001600160a01b031681565b6040516001600160a01b03909116815260200161016e565b6101a2610203366004611448565b610526565b6101a2610216366004611448565b6105a4565b61022e6102293660046115bd565b6105d8565b005b61018a61023e366004611667565b61066f565b6102566102513660046116c8565b61074e565b60405161016e91906117ce565b61022e6102713660046117e1565b610878565b604080518082019091526006815265484f4f504f4560d01b60208201526101a2565b61022e6102a63660046117fc565b6108f7565b6003546001600160a01b03166101dd565b6102cf6102ca366004611838565b610906565b60405161016e92919061186b565b6101646102eb366004611448565b610a7c565b6101a26102fe366004611448565b610aec565b6101a2610311366004611448565b610b20565b610164610324366004611448565b610b5d565b61018a610337366004611899565b6001600160a01b03918216600090815260016020908152604080832093909416825291909152205460ff1690565b61022e6103733660046118cc565b610b7e565b610164610386366004611931565b600060208181529281526040808220909352908152205481565b60006001600160a01b0383166104115760405162461bcd60e51b815260206004820152602b60248201527f455243313135353a2062616c616e636520717565727920666f7220746865207a60448201526a65726f206164647265737360a81b60648201526084015b60405180910390fd5b506000908152602081815260408083206001600160a01b03949094168352929052205490565b60006001600160e01b03198216636cdb3d1360e11b148061046857506001600160e01b031982166303a24d0760e21b145b8061048357506301ffc9a760e01b6001600160e01b03198316145b92915050565b60606005805461049890611954565b80601f01602080910402602001604051908101604052809291908181526020018280546104c490611954565b80156105115780601f106104e657610100808354040283529160200191610511565b820191906000526020600020905b8154815290600101906020018083116104f457829003601f168201915b5050505050905090565b606061048382610aec565b6004805460405163fe05800560e01b81523092810192909252602482018390526060916001600160a01b039091169063fe058005906044015b600060405180830381865afa15801561057c573d6000803e3d6000fd5b505050506040513d6000823e601f3d908101601f19168201604052610483919081019061198e565b60048054604051631303d57d60e11b81529182018390526060916001600160a01b0390911690632607aafa9060240161055f565b6001600160a01b0385163314806105f457506105f48533610337565b61065b5760405162461bcd60e51b815260206004820152603260248201527f455243313135353a207472616e736665722063616c6c6572206973206e6f74206044820152711bdddb995c881b9bdc88185c1c1c9bdd995960721b6064820152608401610408565b6106688585858585610c05565b5050505050565b6003546000906001600160a01b031633146106c55760405162461bcd60e51b8152602060048201526016602482015275165bdd48185c99481b9bdd08185d5d1a1bdc9a5e995960521b6044820152606401610408565b6106d185858585610de2565b6006546106df906001610eec565b60065560008481526008602052604090205460ff16610743576007805460018181019092557fa66cc928b5edb82af9bd49922954155ab7b0942694bea4ce44661d9a8736c688018590556000858152600860205260409020805460ff191690911790555b506001949350505050565b606081518351146107b35760405162461bcd60e51b815260206004820152602960248201527f455243313135353a206163636f756e747320616e6420696473206c656e677468604482015268040dad2e6dac2e8c6d60bb1b6064820152608401610408565b6000835167ffffffffffffffff8111156107cf576107cf611461565b6040519080825280602002602001820160405280156107f8578160200160208202803683370190505b50905060005b84518110156108705761084385828151811061081c5761081c611a10565b602002602001015185838151811061083657610836611a10565b60200260200101516103a0565b82828151811061085557610855611a10565b602090810291909101015261086981611a3c565b90506107fe565b509392505050565b6003546001600160a01b031633146108cb5760405162461bcd60e51b8152602060048201526016602482015275165bdd48185c99481b9bdd08185d5d1a1bdc9a5e995960521b6044820152606401610408565b600380546001600160a01b039092166001600160a01b0319928316811790915560048054909216179055565b610902338383610eff565b5050565b600754606090819060008167ffffffffffffffff81111561092957610929611461565b604051908082528060200260200182016040528015610952578160200160208202803683370190505b50905060008267ffffffffffffffff81111561097057610970611461565b604051908082528060200260200182016040528015610999578160200160208202803683370190505b5090506000805b84811015610a6d576000600782815481106109bd576109bd611a10565b90600052602060002001549050600080600083815260200190815260200160002060008d6001600160a01b03166001600160a01b031681526020019081526020016000205490506000811115610a585780858581518110610a2057610a20611a10565b60200260200101818152505081868581518110610a3f57610a3f611a10565b602090810291909101015283610a5481611a3c565b9450505b50508080610a6590611a3c565b9150506109a0565b50919890975095505050505050565b60048054604051634300794360e01b81529182018390526000916001600160a01b0390911690634300794390602401602060405180830381865afa158015610ac8573d6000803e3d6000fd5b505050506040513d601f19601f820116820180604052508101906104839190611a55565b60048054604051636d02a25560e11b81529182018390526060916001600160a01b039091169063da0544aa9060240161055f565b600480546040516339b488e360e01b81523092810192909252602482018390526060916001600160a01b03909116906339b488e39060440161055f565b60078181548110610b6d57600080fd5b600091825260209091200154905081565b6001600160a01b038516331480610b9a5750610b9a8533610337565b610bf85760405162461bcd60e51b815260206004820152602960248201527f455243313135353a2063616c6c6572206973206e6f74206f776e6572206e6f7260448201526808185c1c1c9bdd995960ba1b6064820152608401610408565b6106688585858585610fdf565b8151835114610c675760405162461bcd60e51b815260206004820152602860248201527f455243313135353a2069647320616e6420616d6f756e7473206c656e677468206044820152670dad2e6dac2e8c6d60c31b6064820152608401610408565b6001600160a01b038416610c8d5760405162461bcd60e51b815260040161040890611a6e565b3360005b8451811015610d74576000858281518110610cae57610cae611a10565b602002602001015190506000858381518110610ccc57610ccc611a10565b602090810291909101810151600084815280835260408082206001600160a01b038e168352909352919091205490915081811015610d1c5760405162461bcd60e51b815260040161040890611ab3565b6000838152602081815260408083206001600160a01b038e8116855292528083208585039055908b16825281208054849290610d59908490611afd565b9250508190555050505080610d6d90611a3c565b9050610c91565b50846001600160a01b0316866001600160a01b0316826001600160a01b03167f4a39dc06d4c0dbc64b70af90fd698a233a518aa5d07e595d983b8c0526c8f7fb8787604051610dc492919061186b565b60405180910390a4610dda8187878787876110fc565b505050505050565b6001600160a01b038416610e425760405162461bcd60e51b815260206004820152602160248201527f455243313135353a206d696e7420746f20746865207a65726f206164647265736044820152607360f81b6064820152608401610408565b33610e5c81600087610e5388611257565b61066888611257565b6000848152602081815260408083206001600160a01b038916845290915281208054859290610e8c908490611afd565b909155505060408051858152602081018590526001600160a01b0380881692600092918516917fc3d58168c5ae7397731d063d5bbf3d657854427343f4c083240f7aacaa2d0f62910160405180910390a4610668816000878787876112a2565b6000610ef88284611afd565b9392505050565b816001600160a01b0316836001600160a01b031603610f725760405162461bcd60e51b815260206004820152602960248201527f455243313135353a2073657474696e6720617070726f76616c20737461747573604482015268103337b91039b2b63360b91b6064820152608401610408565b6001600160a01b03838116600081815260016020908152604080832094871680845294825291829020805460ff191686151590811790915591519182527f17307eab39ab6107e8899845ad3d59bd9653f200f220920489ca2b5937696c31910160405180910390a3505050565b6001600160a01b0384166110055760405162461bcd60e51b815260040161040890611a6e565b33611015818787610e5388611257565b6000848152602081815260408083206001600160a01b038a168452909152902054838110156110565760405162461bcd60e51b815260040161040890611ab3565b6000858152602081815260408083206001600160a01b038b8116855292528083208785039055908816825281208054869290611093908490611afd565b909155505060408051868152602081018690526001600160a01b03808916928a821692918616917fc3d58168c5ae7397731d063d5bbf3d657854427343f4c083240f7aacaa2d0f62910160405180910390a46110f38288888888886112a2565b50505050505050565b6001600160a01b0384163b15610dda5760405163bc197c8160e01b81526001600160a01b0385169063bc197c81906111409089908990889088908890600401611b15565b6020604051808303816000875af192505050801561117b575060408051601f3d908101601f1916820190925261117891810190611b73565b60015b61122757611187611b90565b806308c379a0036111c0575061119b611bac565b806111a657506111c2565b8060405162461bcd60e51b81526004016104089190611435565b505b60405162461bcd60e51b815260206004820152603460248201527f455243313135353a207472616e7366657220746f206e6f6e20455243313135356044820152732932b1b2b4bb32b91034b6b83632b6b2b73a32b960611b6064820152608401610408565b6001600160e01b0319811663bc197c8160e01b146110f35760405162461bcd60e51b815260040161040890611c36565b6040805160018082528183019092526060916000919060208083019080368337019050509050828160008151811061129157611291611a10565b602090810291909101015292915050565b6001600160a01b0384163b15610dda5760405163f23a6e6160e01b81526001600160a01b0385169063f23a6e61906112e69089908990889088908890600401611c7e565b6020604051808303816000875af1925050508015611321575060408051601f3d908101601f1916820190925261131e91810190611b73565b60015b61132d57611187611b90565b6001600160e01b0319811663f23a6e6160e01b146110f35760405162461bcd60e51b815260040161040890611c36565b80356001600160a01b038116811461137457600080fd5b919050565b6000806040838503121561138c57600080fd5b6113958361135d565b946020939093013593505050565b6001600160e01b0319811681146113b957600080fd5b50565b6000602082840312156113ce57600080fd5b8135610ef8816113a3565b60005b838110156113f45781810151838201526020016113dc565b83811115611403576000848401525b50505050565b600081518084526114218160208601602086016113d9565b601f01601f19169290920160200192915050565b602081526000610ef86020830184611409565b60006020828403121561145a57600080fd5b5035919050565b634e487b7160e01b600052604160045260246000fd5b601f8201601f1916810167ffffffffffffffff8111828210171561149d5761149d611461565b6040525050565b600067ffffffffffffffff8211156114be576114be611461565b5060051b60200190565b600082601f8301126114d957600080fd5b813560206114e6826114a4565b6040516114f38282611477565b83815260059390931b850182019282810191508684111561151357600080fd5b8286015b8481101561152e5780358352918301918301611517565b509695505050505050565b600067ffffffffffffffff82111561155357611553611461565b50601f01601f191660200190565b600082601f83011261157257600080fd5b813561157d81611539565b60405161158a8282611477565b82815285602084870101111561159f57600080fd5b82602086016020830137600092810160200192909252509392505050565b600080600080600060a086880312156115d557600080fd5b6115de8661135d565b94506115ec6020870161135d565b9350604086013567ffffffffffffffff8082111561160957600080fd5b61161589838a016114c8565b9450606088013591508082111561162b57600080fd5b61163789838a016114c8565b9350608088013591508082111561164d57600080fd5b5061165a88828901611561565b9150509295509295909350565b6000806000806080858703121561167d57600080fd5b6116868561135d565b93506020850135925060408501359150606085013567ffffffffffffffff8111156116b057600080fd5b6116bc87828801611561565b91505092959194509250565b600080604083850312156116db57600080fd5b823567ffffffffffffffff808211156116f357600080fd5b818501915085601f83011261170757600080fd5b81356020611714826114a4565b6040516117218282611477565b83815260059390931b850182019282810191508984111561174157600080fd5b948201945b83861015611766576117578661135d565b82529482019490820190611746565b9650508601359250508082111561177c57600080fd5b50611789858286016114c8565b9150509250929050565b600081518084526020808501945080840160005b838110156117c3578151875295820195908201906001016117a7565b509495945050505050565b602081526000610ef86020830184611793565b6000602082840312156117f357600080fd5b610ef88261135d565b6000806040838503121561180f57600080fd5b6118188361135d565b91506020830135801515811461182d57600080fd5b809150509250929050565b60008060006060848603121561184d57600080fd5b6118568461135d565b95602085013595506040909401359392505050565b60408152600061187e6040830185611793565b82810360208401526118908185611793565b95945050505050565b600080604083850312156118ac57600080fd5b6118b58361135d565b91506118c36020840161135d565b90509250929050565b600080600080600060a086880312156118e457600080fd5b6118ed8661135d565b94506118fb6020870161135d565b93506040860135925060608601359150608086013567ffffffffffffffff81111561192557600080fd5b61165a88828901611561565b6000806040838503121561194457600080fd5b823591506118c36020840161135d565b600181811c9082168061196857607f821691505b60208210810361198857634e487b7160e01b600052602260045260246000fd5b50919050565b6000602082840312156119a057600080fd5b815167ffffffffffffffff8111156119b757600080fd5b8201601f810184136119c857600080fd5b80516119d381611539565b6040516119e08282611477565b8281528660208486010111156119f557600080fd5b611a068360208301602087016113d9565b9695505050505050565b634e487b7160e01b600052603260045260246000fd5b634e487b7160e01b600052601160045260246000fd5b600060018201611a4e57611a4e611a26565b5060010190565b600060208284031215611a6757600080fd5b5051919050565b60208082526025908201527f455243313135353a207472616e7366657220746f20746865207a65726f206164604082015264647265737360d81b606082015260800190565b6020808252602a908201527f455243313135353a20696e73756666696369656e742062616c616e636520666f60408201526939103a3930b739b332b960b11b606082015260800190565b60008219821115611b1057611b10611a26565b500190565b6001600160a01b0386811682528516602082015260a060408201819052600090611b4190830186611793565b8281036060840152611b538186611793565b90508281036080840152611b678185611409565b98975050505050505050565b600060208284031215611b8557600080fd5b8151610ef8816113a3565b600060033d1115611ba95760046000803e5060005160e01c5b90565b600060443d1015611bba5790565b6040516003193d81016004833e81513d67ffffffffffffffff8160248401118184111715611bea57505050505090565b8285019150815181811115611c025750505050505090565b843d8701016020828501011115611c1c5750505050505090565b611c2b60208286010187611477565b509095945050505050565b60208082526028908201527f455243313135353a204552433131353552656365697665722072656a656374656040820152676420746f6b656e7360c01b606082015260800190565b6001600160a01b03868116825285166020820152604081018490526060810183905260a060808201819052600090611cb890830184611409565b97965050505050505056fea26469706673582212204f0c1b50de39d8add71f62be3c93e995f04d420a3e71b7ee13b74b3607efb08964736f6c634300080e0033",
  "linkReferences": {},
  "deployedLinkReferences": {}
}