{
  "_format": "hh-sol-artifact-1",
  "contractName": "HoopCollectionFacet",
  "sourceName": "contracts/facets/HoopCollectionFacet.sol",
  "abi": [
    {
      "inputs": [
        {
          "internalType": "uint256",
          "name": "_tokenId",
          "type": "uint256"
        }
      ],
      "name": "getCollectionByIndex",
      "outputs": [
        {
          "internalType": "uint256",
          "name": "",
          "type": "uint256"
        },
        {
          "internalType": "string",
          "name": "",
          "type": "string"
        },
        {
          "internalType": "uint256",
          "name": "",
          "type": "uint256"
        },
        {
          "internalType": "uint256",
          "name": "",
          "type": "uint256"
        },
        {
          "internalType": "uint256",
          "name": "",
          "type": "uint256"
        },
        {
          "internalType": "uint256",
          "name": "",
          "type": "uint256"
        },
        {
          "internalType": "bool",
          "name": "",
          "type": "bool"
        }
      ],
      "stateMutability": "view",
      "type": "function"
    },
    {
      "inputs": [
        {
          "internalType": "uint256",
          "name": "_tokenId",
          "type": "uint256"
        }
      ],
      "name": "getCollectionIndex",
      "outputs": [
        {
          "internalType": "uint256",
          "name": "",
          "type": "uint256"
        }
      ],
      "stateMutability": "view",
      "type": "function"
    },
    {
      "inputs": [
        {
          "internalType": "uint256",
          "name": "_tokenId",
          "type": "uint256"
        }
      ],
      "name": "getMintPrice",
      "outputs": [
        {
          "internalType": "uint256",
          "name": "",
          "type": "uint256"
        }
      ],
      "stateMutability": "view",
      "type": "function"
    },
    {
      "inputs": [
        {
          "internalType": "string",
          "name": "_collectionName",
          "type": "string"
        },
        {
          "internalType": "uint256",
          "name": "_tokenId",
          "type": "uint256"
        },
        {
          "internalType": "uint256",
          "name": "_hashPower",
          "type": "uint256"
        },
        {
          "internalType": "uint256",
          "name": "_maxSupply",
          "type": "uint256"
        },
        {
          "internalType": "uint256",
          "name": "_mintPrice",
          "type": "uint256"
        }
      ],
      "name": "registerCollection",
      "outputs": [
        {
          "internalType": "bool",
          "name": "",
          "type": "bool"
        }
      ],
      "stateMutability": "nonpayable",
      "type": "function"
    },
    {
      "inputs": [
        {
          "internalType": "string",
          "name": "_collectionName",
          "type": "string"
        },
        {
          "internalType": "uint256",
          "name": "_tokenId",
          "type": "uint256"
        },
        {
          "internalType": "uint256",
          "name": "_hashPower",
          "type": "uint256"
        },
        {
          "internalType": "uint256",
          "name": "_maxSupply",
          "type": "uint256"
        },
        {
          "internalType": "uint256",
          "name": "_mintPrice",
          "type": "uint256"
        },
        {
          "internalType": "bool",
          "name": "_isExist",
          "type": "bool"
        }
      ],
      "name": "updateCollectionByIndex",
      "outputs": [
        {
          "internalType": "bool",
          "name": "",
          "type": "bool"
        }
      ],
      "stateMutability": "nonpayable",
      "type": "function"
    }
  ],
  "bytecode": "0x608060405234801561001057600080fd5b50610a7d806100206000396000f3fe608060405234801561001057600080fd5b50600436106100575760003560e01c806319a49e3a1461005c578063559e775b1461008b578063bbc557e4146100ac578063d9b2fecb146100cf578063f8f34c28146100e2575b600080fd5b61006f61006a366004610719565b6100f5565b6040516100829796959493929190610732565b60405180910390f35b61009e610099366004610719565b61021f565b604051908152602001610082565b6100bf6100ba366004610862565b6102c3565b6040519015158152602001610082565b6100bf6100dd3660046108de565b6103c0565b61009e6100f0366004610719565b61054f565b600060608180808080600080516020610a288339815191528161011b8a620f42406105de565b9050600061013760016101318d620f42406105f1565b906105fd565b6000838152600e8501602090815260408083208484529091529020600181015460028201546003830154600484015460058501548554969750889660ff9091169086906101839061093b565b80601f01602080910402602001604051908101604052809291908181526020018280546101af9061093b565b80156101fc5780601f106101d1576101008083540402835291602001916101fc565b820191906000526020600020905b8154815290600101906020018083116101df57829003601f168201915b505050505095509950995099509950995099509950505050919395979092949650565b6000600080516020610a288339815191528161023e84620f42406105de565b90506000610254600161013187620f42406105f1565b6000838152600e85016020908152604080832084845290915290206005015490915060ff1661029e5760405162461bcd60e51b815260040161029590610975565b60405180910390fd5b6000918252600e90920160209081526040808320938352929052206004015492915050565b60006102cd610609565b600080516020610a2883398151915260006102eb88620f42406105de565b9050600061030160016101318b620f42406105f1565b6000838152600e85016020908152604080832084845290915290206005015490915060ff166103425760405162461bcd60e51b815260040161029590610975565b6000828152600e84016020908152604080832084845282529091208b5161036b928d0190610680565b506000918252600e929092016020908152604080832093835292905220600180820197909755600281019590955550600384019290925560048301556005909101805460ff1916911515919091179055919050565b60006103ca610609565b600080516020610a2883398151915260006103e887620f42406105de565b905060006103fe60016101318a620f42406105f1565b6000838152600e85016020908152604080832084845290915290206005015490915060ff16156104705760405162461bcd60e51b815260206004820152601960248201527f436f6c6c656374696f6e20616c726561647920657869737421000000000000006044820152606401610295565b6040805160c0810182528a815260208082018b90528183018a90526060820189905260808201889052600160a08301526000858152600e8701825283812085825282529290922081518051929391926104cc9284920190610680565b506020828101516001838101919091556040808501516002850155606085015160038501556080850151600485015560a0909401516005909301805460ff1916931515939093179092556000858152600f87019091529190912054610530916109ba565b6000928352600f90930160205250604090205550600195945050505050565b6000600080516020610a288339815191528161056e84620f42406105de565b90506000610584600161013187620f42406105f1565b6000838152600e85016020908152604080832084845290915290206005015490915060ff166105c55760405162461bcd60e51b815260040161029590610975565b506000908152600f909101602052604090205492915050565b60006105ea82846109e8565b9392505050565b60006105ea82846109fc565b60006105ea8284610a10565b600080516020610a28833981519152600401546001600160a01b0316331461067e5760405162461bcd60e51b815260206004820152602260248201527f4c69624469616d6f6e643a204d75737420626520636f6e7472616374206f776e60448201526132b960f11b6064820152608401610295565b565b82805461068c9061093b565b90600052602060002090601f0160209004810192826106ae57600085556106f4565b82601f106106c757805160ff19168380011785556106f4565b828001600101855582156106f4579182015b828111156106f45782518255916020019190600101906106d9565b50610700929150610704565b5090565b5b808211156107005760008155600101610705565b60006020828403121561072b57600080fd5b5035919050565b8781526000602060e08184015288518060e085015260005b81811015610767578a81018301518582016101000152820161074a565b8181111561077a57600061010083870101525b50610100601f19601f830116850101925050508660408301528560608301528460808301528360a08301526107b360c083018415159052565b98975050505050505050565b634e487b7160e01b600052604160045260246000fd5b600082601f8301126107e657600080fd5b813567ffffffffffffffff80821115610801576108016107bf565b604051601f8301601f19908116603f01168101908282118183101715610829576108296107bf565b8160405283815286602085880101111561084257600080fd5b836020870160208301376000602085830101528094505050505092915050565b60008060008060008060c0878903121561087b57600080fd5b863567ffffffffffffffff81111561089257600080fd5b61089e89828a016107d5565b9650506020870135945060408701359350606087013592506080870135915060a087013580151581146108d057600080fd5b809150509295509295509295565b600080600080600060a086880312156108f657600080fd5b853567ffffffffffffffff81111561090d57600080fd5b610919888289016107d5565b9860208801359850604088013597606081013597506080013595509350505050565b600181811c9082168061094f57607f821691505b60208210810361096f57634e487b7160e01b600052602260045260246000fd5b50919050565b602080825260159082015274436f6c6c656374696f6e206e6f742065786973742160581b604082015260600190565b634e487b7160e01b600052601160045260246000fd5b600082198211156109cd576109cd6109a4565b500190565b634e487b7160e01b600052601260045260246000fd5b6000826109f7576109f76109d2565b500490565b600082610a0b57610a0b6109d2565b500690565b600082821015610a2257610a226109a4565b50039056feedcd8c728f595f855e81480758ad7c02f2ebe1a9550fcf35751583a7d0a6c2cea26469706673582212200cf80cd865b2ba844a3ec667aa9488a0fcf47c170d75d178d3224759216b830e64736f6c634300080e0033",
  "linkReferences": {},
  "deployedLinkReferences": {}
}